{
  "contractName": "SynthaSwap",
  "abi": [
    {
      "inputs": [],
      "stateMutability": "nonpayable",
      "type": "constructor"
    },
    {
      "inputs": [],
      "name": "sEthToken",
      "outputs": [
        {
          "internalType": "contract IERC20",
          "name": "",
          "type": "address"
        }
      ],
      "stateMutability": "view",
      "type": "function",
      "constant": true
    },
    {
      "inputs": [],
      "name": "uniswapRouter",
      "outputs": [
        {
          "internalType": "contract IUniswapV2Router02",
          "name": "",
          "type": "address"
        }
      ],
      "stateMutability": "view",
      "type": "function",
      "constant": true
    },
    {
      "inputs": [],
      "name": "wBtcToken",
      "outputs": [
        {
          "internalType": "contract IERC20",
          "name": "",
          "type": "address"
        }
      ],
      "stateMutability": "view",
      "type": "function",
      "constant": true
    },
    {
      "stateMutability": "payable",
      "type": "receive",
      "payable": true
    },
    {
      "inputs": [
        {
          "internalType": "uint256",
          "name": "wbtcAmount",
          "type": "uint256"
        }
      ],
      "name": "convertWbtctoSynthEth",
      "outputs": [
        {
          "internalType": "uint256[]",
          "name": "",
          "type": "uint256[]"
        }
      ],
      "stateMutability": "nonpayable",
      "type": "function"
    },
    {
      "inputs": [],
      "name": "convertEthtoSynthEth",
      "outputs": [],
      "stateMutability": "payable",
      "type": "function",
      "payable": true
    },
    {
      "inputs": [],
      "name": "convertEthtoWbtc",
      "outputs": [],
      "stateMutability": "payable",
      "type": "function",
      "payable": true
    },
    {
      "inputs": [
        {
          "internalType": "uint256",
          "name": "ethAmount",
          "type": "uint256"
        }
      ],
      "name": "getEstimateSynthEthforEth",
      "outputs": [
        {
          "internalType": "uint256[]",
          "name": "",
          "type": "uint256[]"
        }
      ],
      "stateMutability": "view",
      "type": "function",
      "constant": true
    }
  ],
  "bytecode": "0x6080604052735e74c9036fb86bd7ecdcb084a0673efc32ea31cb600360006101000a81548173ffffffffffffffffffffffffffffffffffffffff021916908373ffffffffffffffffffffffffffffffffffffffff160217905550732260fac5e5542a773aa44fbcfedf7c193bc2c599600460006101000a81548173ffffffffffffffffffffffffffffffffffffffff021916908373ffffffffffffffffffffffffffffffffffffffff1602179055503480156100ba57600080fd5b50737a250d5630b4cf539739df2c5dacb4c659f2488d6000806101000a81548173ffffffffffffffffffffffffffffffffffffffff021916908373ffffffffffffffffffffffffffffffffffffffff160217905550600460009054906101000a900473ffffffffffffffffffffffffffffffffffffffff16600160006101000a81548173ffffffffffffffffffffffffffffffffffffffff021916908373ffffffffffffffffffffffffffffffffffffffff160217905550600360009054906101000a900473ffffffffffffffffffffffffffffffffffffffff16600260006101000a81548173ffffffffffffffffffffffffffffffffffffffff021916908373ffffffffffffffffffffffffffffffffffffffff1602179055506111db806101e46000396000f3fe6080604052600436106100745760003560e01c8063a3083fad1161004e578063a3083fad14610171578063a4a641a01461017b578063d011355d1461020b578063ed165955146102625761007b565b80635a14607a14610080578063735de9f71461008a5780638a7d0553146100e15761007b565b3661007b57005b600080fd5b6100886102b9565b005b34801561009657600080fd5b5061009f61049c565b604051808273ffffffffffffffffffffffffffffffffffffffff1673ffffffffffffffffffffffffffffffffffffffff16815260200191505060405180910390f35b3480156100ed57600080fd5b5061011a6004803603602081101561010457600080fd5b81019080803590602001909291905050506104c1565b6040518080602001828103825283818151815260200191508051906020019060200280838360005b8381101561015d578082015181840152602081019050610142565b505050509050019250505060405180910390f35b610179610661565b005b34801561018757600080fd5b506101b46004803603602081101561019e57600080fd5b8101908080359060200190929190505050610844565b6040518080602001828103825283818151815260200191508051906020019060200280838360005b838110156101f75780820151818401526020810190506101dc565b505050509050019250505060405180910390f35b34801561021757600080fd5b50610220610d28565b604051808273ffffffffffffffffffffffffffffffffffffffff1673ffffffffffffffffffffffffffffffffffffffff16815260200191505060405180910390f35b34801561026e57600080fd5b50610277610d4e565b604051808273ffffffffffffffffffffffffffffffffffffffff1673ffffffffffffffffffffffffffffffffffffffff16815260200191505060405180910390f35b6000600f420190506000809054906101000a900473ffffffffffffffffffffffffffffffffffffffff1673ffffffffffffffffffffffffffffffffffffffff16637ff36ab5346000610309610d74565b33866040518663ffffffff1660e01b815260040180858152602001806020018473ffffffffffffffffffffffffffffffffffffffff1673ffffffffffffffffffffffffffffffffffffffff168152602001838152602001828103825285818151815260200191508051906020019060200280838360005b8381101561039b578082015181840152602081019050610380565b50505050905001955050505050506000604051808303818588803b1580156103c257600080fd5b505af11580156103d6573d6000803e3d6000fd5b50505050506040513d6000823e3d601f19601f82011682018060405250602081101561040157600080fd5b810190808051604051939291908464010000000082111561042157600080fd5b8382019150602082018581111561043757600080fd5b825186602082028301116401000000008211171561045457600080fd5b8083526020830192505050908051906020019060200280838360005b8381101561048b578082015181840152602081019050610470565b505050509050016040525050505050565b6000809054906101000a900473ffffffffffffffffffffffffffffffffffffffff1681565b60606000809054906101000a900473ffffffffffffffffffffffffffffffffffffffff1673ffffffffffffffffffffffffffffffffffffffff1663d06ca61f83610509610d74565b6040518363ffffffff1660e01b81526004018083815260200180602001828103825283818151815260200191508051906020019060200280838360005b83811015610561578082015181840152602081019050610546565b50505050905001935050505060006040518083038186803b15801561058557600080fd5b505afa158015610599573d6000803e3d6000fd5b505050506040513d6000823e3d601f19601f8201168201806040525060208110156105c357600080fd5b81019080805160405193929190846401000000008211156105e357600080fd5b838201915060208201858111156105f957600080fd5b825186602082028301116401000000008211171561061657600080fd5b8083526020830192505050908051906020019060200280838360005b8381101561064d578082015181840152602081019050610632565b505050509050016040525050509050919050565b6000600f420190506000809054906101000a900473ffffffffffffffffffffffffffffffffffffffff1673ffffffffffffffffffffffffffffffffffffffff16637ff36ab53460006106b1610f04565b33866040518663ffffffff1660e01b815260040180858152602001806020018473ffffffffffffffffffffffffffffffffffffffff1673ffffffffffffffffffffffffffffffffffffffff168152602001838152602001828103825285818151815260200191508051906020019060200280838360005b83811015610743578082015181840152602081019050610728565b50505050905001955050505050506000604051808303818588803b15801561076a57600080fd5b505af115801561077e573d6000803e3d6000fd5b50505050506040513d6000823e3d601f19601f8201168201806040525060208110156107a957600080fd5b81019080805160405193929190846401000000008211156107c957600080fd5b838201915060208201858111156107df57600080fd5b82518660208202830111640100000000821117156107fc57600080fd5b8083526020830192505050908051906020019060200280838360005b83811015610833578082015181840152602081019050610818565b505050509050016040525050505050565b6060600160009054906101000a900473ffffffffffffffffffffffffffffffffffffffff1673ffffffffffffffffffffffffffffffffffffffff166323b872dd3330856040518463ffffffff1660e01b8152600401808473ffffffffffffffffffffffffffffffffffffffff1673ffffffffffffffffffffffffffffffffffffffff1681526020018373ffffffffffffffffffffffffffffffffffffffff1673ffffffffffffffffffffffffffffffffffffffff1681526020018281526020019350505050602060405180830381600087803b15801561092357600080fd5b505af1158015610937573d6000803e3d6000fd5b505050506040513d602081101561094d57600080fd5b81019080805190602001909291905050506109d0576040517f08c379a00000000000000000000000000000000000000000000000000000000081526004018080602001828103825260188152602001807f436f756c64206e6f74207472617366657220746f6b656e73000000000000000081525060200191505060405180910390fd5b600160009054906101000a900473ffffffffffffffffffffffffffffffffffffffff1673ffffffffffffffffffffffffffffffffffffffff1663095ea7b3737a250d5630b4cf539739df2c5dacb4c659f2488d846040518363ffffffff1660e01b8152600401808373ffffffffffffffffffffffffffffffffffffffff1673ffffffffffffffffffffffffffffffffffffffff16815260200182815260200192505050602060405180830381600087803b158015610a8d57600080fd5b505af1158015610aa1573d6000803e3d6000fd5b505050506040513d6020811015610ab757600080fd5b8101908080519060200190929190505050610b3a576040517f08c379a00000000000000000000000000000000000000000000000000000000081526004018080602001828103825260148152602001807f7742544320617070726f7665206661696c65642100000000000000000000000081525060200191505060405180910390fd5b6000600f420190506000809054906101000a900473ffffffffffffffffffffffffffffffffffffffff1673ffffffffffffffffffffffffffffffffffffffff166338ed1739846000610b8a611094565b33866040518663ffffffff1660e01b815260040180868152602001858152602001806020018473ffffffffffffffffffffffffffffffffffffffff1673ffffffffffffffffffffffffffffffffffffffff168152602001838152602001828103825285818151815260200191508051906020019060200280838360005b83811015610c22578082015181840152602081019050610c07565b505050509050019650505050505050600060405180830381600087803b158015610c4b57600080fd5b505af1158015610c5f573d6000803e3d6000fd5b505050506040513d6000823e3d601f19601f820116820180604052506020811015610c8957600080fd5b8101908080516040519392919084640100000000821115610ca957600080fd5b83820191506020820185811115610cbf57600080fd5b8251866020820283011164010000000082111715610cdc57600080fd5b8083526020830192505050908051906020019060200280838360005b83811015610d13578082015181840152602081019050610cf8565b50505050905001604052505050915050919050565b600160009054906101000a900473ffffffffffffffffffffffffffffffffffffffff1681565b600260009054906101000a900473ffffffffffffffffffffffffffffffffffffffff1681565b6060806002604051908082528060200260200182016040528015610da75781602001602082028038833980820191505090505b5090506000809054906101000a900473ffffffffffffffffffffffffffffffffffffffff1673ffffffffffffffffffffffffffffffffffffffff1663ad5c46486040518163ffffffff1660e01b815260040160206040518083038186803b158015610e1157600080fd5b505afa158015610e25573d6000803e3d6000fd5b505050506040513d6020811015610e3b57600080fd5b810190808051906020019092919050505081600081518110610e5957fe5b602002602001019073ffffffffffffffffffffffffffffffffffffffff16908173ffffffffffffffffffffffffffffffffffffffff1681525050600360009054906101000a900473ffffffffffffffffffffffffffffffffffffffff1681600181518110610ec357fe5b602002602001019073ffffffffffffffffffffffffffffffffffffffff16908173ffffffffffffffffffffffffffffffffffffffff16815250508091505090565b6060806002604051908082528060200260200182016040528015610f375781602001602082028038833980820191505090505b5090506000809054906101000a900473ffffffffffffffffffffffffffffffffffffffff1673ffffffffffffffffffffffffffffffffffffffff1663ad5c46486040518163ffffffff1660e01b815260040160206040518083038186803b158015610fa157600080fd5b505afa158015610fb5573d6000803e3d6000fd5b505050506040513d6020811015610fcb57600080fd5b810190808051906020019092919050505081600081518110610fe957fe5b602002602001019073ffffffffffffffffffffffffffffffffffffffff16908173ffffffffffffffffffffffffffffffffffffffff1681525050600460009054906101000a900473ffffffffffffffffffffffffffffffffffffffff168160018151811061105357fe5b602002602001019073ffffffffffffffffffffffffffffffffffffffff16908173ffffffffffffffffffffffffffffffffffffffff16815250508091505090565b60608060026040519080825280602002602001820160405280156110c75781602001602082028038833980820191505090505b509050600460009054906101000a900473ffffffffffffffffffffffffffffffffffffffff16816000815181106110fa57fe5b602002602001019073ffffffffffffffffffffffffffffffffffffffff16908173ffffffffffffffffffffffffffffffffffffffff1681525050600360009054906101000a900473ffffffffffffffffffffffffffffffffffffffff168160018151811061116457fe5b602002602001019073ffffffffffffffffffffffffffffffffffffffff16908173ffffffffffffffffffffffffffffffffffffffff1681525050809150509056fea26469706673582212204a260492e7c6c3c63e19de69743d3750d5b67ab4f5f23f36ddaadb64deadbf2564736f6c63430006020033",
  "source": "pragma solidity ^0.6.0;\r\n\r\nimport '@uniswap/v2-periphery/contracts/interfaces/IUniswapV2Router02.sol';\r\nimport \"@openzeppelin/contracts/math/SafeMath.sol\";\r\nimport \"@openzeppelin/contracts/token/ERC20/IERC20.sol\";\r\n\r\ncontract SynthaSwap {\r\n\r\n    using SafeMath for uint256;\r\n\r\n    address internal constant UNISWAP_ROUTER_ADDRESS = 0x7a250d5630B4cF539739dF2C5dAcb4c659F2488D ;\r\n\r\n    IUniswapV2Router02 public uniswapRouter;\r\n    IERC20 public wBtcToken;\r\n    IERC20 public sEthToken;\r\n\r\n    address private sEth = 0x5e74C9036fb86BD7eCdcb084a0673EFc32eA31cb;\r\n    address private wBtc = 0x2260FAC5E5542a773Aa44fBCfeDf7C193bc2C599;\r\n\r\n    constructor() public {\r\n        uniswapRouter = IUniswapV2Router02(UNISWAP_ROUTER_ADDRESS);\r\n        wBtcToken = IERC20(wBtc);\r\n        sEthToken = IERC20(sEth);\r\n    }\r\n\r\n    function convertWbtctoSynthEth(uint wbtcAmount) external returns (uint256[] memory) {\r\n        require(\r\n            wBtcToken.transferFrom(address(msg.sender), address(this), wbtcAmount),\r\n            \"Could not trasfer tokens\"    \r\n        );\r\n\r\n        require(\r\n            wBtcToken.approve(address(UNISWAP_ROUTER_ADDRESS), wbtcAmount),\r\n            \"wBTC approve failed!\"\r\n        );\r\n\r\n        uint deadline = now + 15;\r\n\r\n        return uniswapRouter.swapExactTokensForTokens(wbtcAmount, 0, getPathForWbtctoSynthEth(), msg.sender, deadline);\r\n    }\r\n\r\n    function convertEthtoSynthEth() public payable {\r\n        uint deadline = now + 15;\r\n\r\n        // uniswapRouter.swapExactETHForTokens.value(msg.value)(0, getPathForEthtoSynthEth(), address(this), deadline);\r\n        uniswapRouter.swapExactETHForTokens.value(msg.value)(0, getPathForEthtoSynthEth(), msg.sender, deadline);\r\n    }\r\n\r\n    function convertEthtoWbtc() public payable {\r\n        uint deadline = now + 15;\r\n\r\n        uniswapRouter.swapExactETHForTokens.value(msg.value)(0, getPathForEthtowBtc(), msg.sender, deadline);\r\n    }\r\n\r\n    function getEstimateSynthEthforEth(uint ethAmount) public view returns (uint[] memory) {\r\n        // uint maximum = uniswapRouter.getAmountsOut(ethAmount, getPathForEthtoSynthEth());\r\n        // return maximum.mul(90).div(100);\r\n        return uniswapRouter.getAmountsOut(ethAmount, getPathForEthtoSynthEth());\r\n    }\r\n\r\n    function getPathForWbtctoSynthEth() private view returns (address[] memory) {\r\n        address[] memory path = new address[](2);\r\n        path[0] = wBtc;\r\n        path[1] = sEth;\r\n\r\n        return path;\r\n    }\r\n\r\n    function getPathForEthtoSynthEth() private view returns (address[] memory) {\r\n        address[] memory path = new address[](2);\r\n        path[0] = uniswapRouter.WETH();\r\n        path[1] = sEth;\r\n\r\n        return path;\r\n    }\r\n\r\n    function getPathForEthtowBtc() private view returns (address[] memory) {\r\n        address[] memory path = new address[](2);\r\n        path[0] = uniswapRouter.WETH();\r\n        path[1] = wBtc;\r\n\r\n        return path;\r\n    }\r\n\r\n    receive() payable external {}\r\n}",
  "sourcePath": "/mnt/e/Projects/tests/truffle-test/contracts/SynthaSwap.sol",
  "compiler": {
    "name": "solc",
    "version": "0.6.2+commit.bacdbe57.Emscripten.clang"
  },
  "schemaVersion": "3.2.3",
  "updatedAt": "2020-08-31T12:08:47.358Z",
  "networkType": "ethereum",
  "devdoc": {
    "methods": {}
  },
  "userdoc": {
    "methods": {}
  }
}